:100000000C9462000C948A000C948A000C948A0070
:100010000C948A000C948A000C948A000C941B02A5
:100020000C948A000C948A000C948A000C948A0028
:100030000C948A000C948A000C948A000C948A0018
:100040000C9469030C948A000C948A000C948A0026
:100050000C948A000C948A000C948A000C948A00F8
:100060000C948A000C948A000000000024002700F1
:100070002A0000000000250028002B0000000000DE
:1000800023002600290004040404040404040202DA
:100090000202020203030303030301020408102007
:1000A0004080010204081020010204081020000012
:1000B0000007000201000003040600000000000029
:1000C0000000260311241FBECFEFD4E0DEBFCDBF5A
:1000D00011E0A0E0B1E0E8EFFAE002C005900D9277
:1000E000A630B107D9F711E0A6E0B1E001C01D923A
:1000F000AB31B107E1F710E0C4ECD0E004C02297C7
:10010000FE010E947104C23CD107C9F70E9453034B
:100110000C947A050C940000EF92FF92CF93DF933A
:10012000FC01808191810097B9F4C0E0D0E00EC05D
:10013000118210821382128207C0DC0114962D9165
:100140003C911597318320830E942105CE01DF91D8
:10015000CF91FF90EF900895248135812150304058
:1001600035832483DC01CD91DC9111972281338189
:100170008217930711F7DCCFBF92CF92DF92EF92F5
:10018000FF920F931F93CF93DF93BFB6F894009124
:10019000060110910701FB01C480D580F801C081E0
:1001A000D181209709F04BC0C8010E948C007C01CE
:1001B00038C0228133812C153D0589F49D838C83C1
:1001C000E080F180CF010E942105F80184819581B2
:1001D000019795838483E114F10419F507C0EF01B9
:1001E000EC81FD8184819581009719F78C819D8137
:1001F000FC01228133812C153D0519F0EE24FF24EA
:1002000010C01D821C82F801D383C283FC01E080F0
:10021000F1800E942105F8018481958101979583E1
:100220008483C7010E942105BFBEDF91CF911F913A
:100230000F91FF90EF90DF90CF90BF9008958A814B
:100240009B818C159D0561F6AFCF0E94BC0008957F
:10025000EF92FF920F931F93CF93DF93EC018B01EB
:100260007A0186E090E00E947504FC01118300830E
:1002700015821482F382E2828C819D8101969D8396
:100280008C83488159814115510549F5F983E883EB
:1002900023C055834483F983E8832AC0DC01129686
:1002A0002D913C911397E216F30644F495838483D1
:1002B000DA011596FC93EE9314971AC0AC01DA019B
:1002C00014968D919C911597009741F7AA81BB8157
:1002D0001596FC93EE931497FB83EA8309C0DA0129
:1002E00012968D919C911397E816F90644F7D1CF99
:1002F000DF91CF911F910F91FF90EF900895AF92F2
:10030000BF92CF92DF92EF92FF921F93CF93DF9332
:100310006B017A014115510511F4FB0109958FE03C
:1003200090E00E947504192FA82EE5015E01B92EF8
:10033000E501C501B601A70121E00E941D034C8122
:100340005D818091060190910701B5010E9428010D
:10035000809170008260809370008A2D912FDF91D0
:10036000CF911F91FF90EF90DF90CF90BF90AF9013
:100370000895AF92BF92CF92DF92EF92FF921F93B8
:10038000CF93DF936B017A014115510511F4FB0105
:1003900009958FE090E00E947504192FA82EE501C1
:1003A0005E01B92EE501C501B601A70120E00E945A
:1003B0001D034C815D818091060190910701B5017B
:1003C0000E942801809170008260809370008A2DC5
:1003D000912FDF91CF911F91FF90EF90DF90CF9001
:1003E000BF90AF90089582E08093B000E1EBF0E021
:1003F00085E0808380818D7F80838CE78093B3004C
:100400001092B20086E090E00E947504FC01118217
:1004100010821382128215821482909307018093B6
:100420000601109209011092080110920B0110921E
:100430000A01789408951F920F920FB60F9211241B
:100440001F932F933F934F935F936F937F938F935C
:100450009F93AF93BF93EF93FF931FB7F8941092BE
:10046000B200E0910801F0910901309761F18185B6
:10047000882349F580858823F1F086819781AA2712
:1004800097FDA095BA2F80839183A283B3830E94A6
:10049000B103E0910801F091090146815781460FAF
:1004A000571F558344838091060190910701BF0136
:1004B0000E94280104C0F0930B01E0930A011092FE
:1004C0000901109208018091060190910701DC0159
:1004D000ED91FC91119713C0A081B1812D913D91B7
:1004E0004D915C91139721503040404050402D93E6
:1004F0003D934D935C9313970480F581E02D3097E5
:1005000059F70E948C00BC01FC0180819181A2817D
:10051000B381181619061A061B062CF070930901F0
:10052000609308010BC0DB0114964D915C91159707
:1005300080910601909107010E9428011FBF8091C0
:10054000080190910901009731F0FC0121852223D7
:1005500011F40E94DC0280910A0190910B01009736
:1005600031F00E94210510920B0110920A01E091D6
:100570000601F091070180819181009759F48091E3
:10058000080190910901009729F4809170008D7FF6
:1005900080937000FF91EF91BF91AF919F918F91E8
:1005A0007F916F915F914F913F912F911F910F908C
:1005B0000FBE0F901F901895CF93DF93EC0181E051
:1005C00089878A85882351F08D859E85DC01ED9190
:1005D000FC910190F081E02D099503C0EB85FC852D
:1005E00009951986DF91CF910895EF92FF920F93AD
:1005F0001F93DF93CF930F92CDB7DEB77C018B01B2
:10060000CB01A0E0B0E0F70180839183A283B383A4
:100610007783668349830E94B103060F171FF70192
:10062000158304834981408711860F90CF91DF9114
:100630001F910F91FF90EF900895FC0174876387DD
:100640001286BA01422F0E94F50208958CE091E0D3
:100650000E94F3010895EF92FF920F931F93CF939F
:10066000DF93CCE0D1E008E513E0CE01B80144EF20
:1006700051E00E947F017C0160E177E280E090E040
:100680000E94BF03CE01B7010E942501CE01B8012F
:1006900048EE53E00E94B901DF91CF911F910F9175
:1006A000FF90EF9008950E94E9030E942B03FFCF73
:1006B00080910D01882319F08DE060E002C08DE08B
:1006C00061E00E94230480910D01809580930D01CB
:1006D00008951F920F920FB60F9211242F933F93FC
:1006E0008F939F93AF93BF938091120190911301C9
:1006F000A0911401B0911501309116010196A11D30
:10070000B11D232F2D5F2D3720F02D570196A11DF0
:10071000B11D209316018093120190931301A093B1
:100720001401B093150180910E0190910F01A091D9
:100730001001B09111010196A11DB11D80930E0110
:1007400090930F01A0931001B0931101BF91AF914D
:100750009F918F913F912F910F900FBE0F901F90FF
:1007600018958FB7F89420911201309113014091A0
:100770001401509115018FBFB901CA010895EF927C
:10078000FF920F931F937B018C018FB7F8942091F8
:1007900012013091130140911401509115018FBF46
:1007A0006FB7F8948091120190911301A0911401F8
:1007B000B09115016FBF821B930BA40BB50BE8160C
:1007C000F9060A071B0760F71F910F91FF90EF9042
:1007D0000895789484B5826084BD84B5816084BDB9
:1007E00085B5826085BD85B5816085BDEEE6F0E0AA
:1007F000808181608083E1E8F0E080818260808395
:10080000808181608083E0E8F0E080818160808386
:10081000E1EBF0E0808184608083E0EBF0E08081B8
:1008200081608083EAE7F0E080818460808380815A
:100830008260808380818160808380818068808302
:100840001092C1000895482F50E0CA0182559F4F71
:10085000FC0194919A0126563F4FF9012491FA0127
:10086000EA57FF4FE491EE23C9F1992331F1933018
:1008700021F4909180009F7705C0943031F49091DD
:1008800080009F7D9093800018C0913019F494B53A
:100890009F7704C0923021F494B59F7D94BD0DC024
:1008A000963021F49091B0009F7705C0973029F4DD
:1008B0009091B0009F7D9093B000F0E0EE0FFF1F8D
:1008C000EE58FF4FA591B491662329F48C912095A1
:1008D00082238C9308958C91822B8C930895EE0F34
:1008E000FF1F0590F491E02D0994CF93DF938230A0
:1008F000910510F482E090E0A0911901B0911A01E5
:10090000FD0120E030E0C0E0D0E020C04081518116
:100910004817590761F482819381209719F09B83CE
:100920008A833AC090931A018093190135C08417C5
:10093000950738F42115310519F04217530708F4CB
:100940009A01EF0152814381E52FF42F3097F1F6A0
:1009500021153105B9F1A901481B590B4430510546
:1009600008F4C901E0E0F0E02BC04D915C911197D3
:100970004217530701F58217930781F412968D9160
:100980009C911397309719F09383828304C09093BE
:100990001A0180931901FD0132964FC0281B390BB3
:1009A000FD01E20FF31F8193919322503040119685
:1009B0003C932E9342C0FD0152814381A52FB42F59
:1009C000109799F6209117013091180121153105E2
:1009D00041F42091020130910301309318012093DA
:1009E000170120910401309105012115310541F4D1
:1009F0002DB73EB74091000150910101241B350BEA
:100A0000E0911701F0911801E217F307A0F42E1BF3
:100A10003F0B2817390778F0AC014E5F5F4F241762
:100A2000350748F04E0F5F1F509318014093170190
:100A30008193919302C0E0E0F0E0CF01DF91CF918C
:100A40000895CF93DF93009709F451C0FC013297CA
:100A500013821282A0911901B0911A01109751F1DD
:100A600040E050E0AE17BF0748F412968D919C917C
:100A70001397AD01009719F1DC01F4CFB383A28382
:100A8000EF0129913991CE01820F931FA817B90761
:100A900071F48D919C911197820F931F029691830F
:100AA000808312968D919C91139793838283411535
:100AB000510529F4F0931A01E093190118C0DA01E5
:100AC0001396FC93EE9312972D913D91A20FB31FB5
:100AD000EA17FB0761F480819181820F931F0296D0
:100AE000EA0199838883828193819B838A83DF9142
:080AF000CF910895F894FFCFA7
:060AF80020001B010000BC
:00000001FF
